{
  "_format": "hh-sol-artifact-1",
  "contractName": "BirdBank",
  "sourceName": "contracts/BirdBank.sol",
  "abi": [
    {
      "inputs": [],
      "stateMutability": "nonpayable",
      "type": "constructor"
    },
    {
      "inputs": [
        {
          "internalType": "string",
          "name": "_uuid",
          "type": "string"
        },
        {
          "internalType": "address payable",
          "name": "address0",
          "type": "address"
        },
        {
          "internalType": "address payable",
          "name": "address1",
          "type": "address"
        },
        {
          "internalType": "address payable",
          "name": "address2",
          "type": "address"
        }
      ],
      "name": "addAddresses",
      "outputs": [],
      "stateMutability": "nonpayable",
      "type": "function"
    },
    {
      "inputs": [
        {
          "internalType": "string",
          "name": "_uuid",
          "type": "string"
        }
      ],
      "name": "createContract",
      "outputs": [],
      "stateMutability": "payable",
      "type": "function"
    },
    {
      "inputs": [
        {
          "internalType": "string",
          "name": "_uuid",
          "type": "string"
        }
      ],
      "name": "getAddress",
      "outputs": [
        {
          "internalType": "contract SubBank",
          "name": "",
          "type": "address"
        }
      ],
      "stateMutability": "view",
      "type": "function"
    },
    {
      "inputs": [
        {
          "internalType": "string",
          "name": "_uuid",
          "type": "string"
        }
      ],
      "name": "getTotalBalance",
      "outputs": [
        {
          "internalType": "uint256",
          "name": "",
          "type": "uint256"
        }
      ],
      "stateMutability": "view",
      "type": "function"
    },
    {
      "inputs": [],
      "name": "owner",
      "outputs": [
        {
          "internalType": "address payable",
          "name": "",
          "type": "address"
        }
      ],
      "stateMutability": "view",
      "type": "function"
    },
    {
      "inputs": [
        {
          "internalType": "string",
          "name": "_uuid",
          "type": "string"
        }
      ],
      "name": "payOut",
      "outputs": [],
      "stateMutability": "nonpayable",
      "type": "function"
    },
    {
      "inputs": [
        {
          "internalType": "string",
          "name": "",
          "type": "string"
        }
      ],
      "name": "subBanks",
      "outputs": [
        {
          "internalType": "contract SubBank",
          "name": "",
          "type": "address"
        }
      ],
      "stateMutability": "view",
      "type": "function"
    }
  ],
  "bytecode": "0x608060405234801561001057600080fd5b50336000806101000a81548173ffffffffffffffffffffffffffffffffffffffff021916908373ffffffffffffffffffffffffffffffffffffffff1602179055506116c9806100606000396000f3fe6080604052600436106200007a5760003560e01c806334b30de7116200005557806334b30de714620000fb5780638da5cb5b146200013f578063bf40fac1146200016f578063cd19d15114620001b3576200007a565b8063133280b0146200007f57806318f80bb914620000ad57806324ef4e0d14620000cd575b600080fd5b3480156200008c57600080fd5b50620000ab6004803603810190620000a5919062000839565b620001f7565b005b620000cb6004803603810190620000c5919062000839565b620002a2565b005b348015620000da57600080fd5b50620000f96004803603810190620000f39190620008ef565b620003b8565b005b3480156200010857600080fd5b5062000127600480360381019062000121919062000839565b62000511565b6040516200013691906200099b565b60405180910390f35b3480156200014c57600080fd5b5062000157620005e1565b604051620001669190620009c9565b60405180910390f35b3480156200017c57600080fd5b506200019b600480360381019062000195919062000839565b62000605565b604051620001aa919062000a51565b60405180910390f35b348015620001c057600080fd5b50620001df6004803603810190620001d9919062000839565b62000654565b604051620001ee919062000a51565b60405180910390f35b60006001826040516200020b919062000af1565b908152602001604051809103902060009054906101000a900473ffffffffffffffffffffffffffffffffffffffff1690508073ffffffffffffffffffffffffffffffffffffffff1663c20524036040518163ffffffff1660e01b8152600401600060405180830381600087803b1580156200028557600080fd5b505af11580156200029a573d6000803e3d6000fd5b505050505050565b60008054906101000a900473ffffffffffffffffffffffffffffffffffffffff1673ffffffffffffffffffffffffffffffffffffffff166108fc667c5850872380009081150290604051600060405180830381858888f1935050505015801562000310573d6000803e3d6000fd5b5060006200032634667c5850872380006200069d565b6040516200033490620006b5565b6040518091039082f090508015801562000352573d6000803e3d6000fd5b5090508060018360405162000368919062000af1565b908152602001604051809103902060006101000a81548173ffffffffffffffffffffffffffffffffffffffff021916908373ffffffffffffffffffffffffffffffffffffffff1602179055505050565b6000600185604051620003cc919062000af1565b908152602001604051809103902060009054906101000a900473ffffffffffffffffffffffffffffffffffffffff1690508073ffffffffffffffffffffffffffffffffffffffff1663645a66ea60405180606001604052808773ffffffffffffffffffffffffffffffffffffffff1673ffffffffffffffffffffffffffffffffffffffff1681526020018673ffffffffffffffffffffffffffffffffffffffff1673ffffffffffffffffffffffffffffffffffffffff1681526020018573ffffffffffffffffffffffffffffffffffffffff1673ffffffffffffffffffffffffffffffffffffffff168152506040518263ffffffff1660e01b8152600401620004d6919062000bc5565b600060405180830381600087803b158015620004f157600080fd5b505af115801562000506573d6000803e3d6000fd5b505050505050505050565b60008060018360405162000526919062000af1565b908152602001604051809103902060009054906101000a900473ffffffffffffffffffffffffffffffffffffffff1690508073ffffffffffffffffffffffffffffffffffffffff1663ad7a672f6040518163ffffffff1660e01b815260040160206040518083038186803b1580156200059e57600080fd5b505afa158015620005b3573d6000803e3d6000fd5b505050506040513d601f19601f82011682018060405250810190620005d9919062000c13565b915050919050565b60008054906101000a900473ffffffffffffffffffffffffffffffffffffffff1681565b6000806001836040516200061a919062000af1565b908152602001604051809103902060009054906101000a900473ffffffffffffffffffffffffffffffffffffffff16905080915050919050565b6001818051602081018201805184825260208301602085012081835280955050505050506000915054906101000a900473ffffffffffffffffffffffffffffffffffffffff1681565b60008183620006ad919062000c74565b905092915050565b6109e48062000cb083390190565b6000604051905090565b600080fd5b600080fd5b600080fd5b600080fd5b6000601f19601f8301169050919050565b7f4e487b7100000000000000000000000000000000000000000000000000000000600052604160045260246000fd5b6200072c82620006e1565b810181811067ffffffffffffffff821117156200074e576200074d620006f2565b5b80604052505050565b600062000763620006c3565b905062000771828262000721565b919050565b600067ffffffffffffffff821115620007945762000793620006f2565b5b6200079f82620006e1565b9050602081019050919050565b82818337600083830152505050565b6000620007d2620007cc8462000776565b62000757565b905082815260208101848484011115620007f157620007f0620006dc565b5b620007fe848285620007ac565b509392505050565b600082601f8301126200081e576200081d620006d7565b5b813562000830848260208601620007bb565b91505092915050565b600060208284031215620008525762000851620006cd565b5b600082013567ffffffffffffffff811115620008735762000872620006d2565b5b620008818482850162000806565b91505092915050565b600073ffffffffffffffffffffffffffffffffffffffff82169050919050565b6000620008b7826200088a565b9050919050565b620008c981620008aa565b8114620008d557600080fd5b50565b600081359050620008e981620008be565b92915050565b600080600080608085870312156200090c576200090b620006cd565b5b600085013567ffffffffffffffff8111156200092d576200092c620006d2565b5b6200093b8782880162000806565b94505060206200094e87828801620008d8565b93505060406200096187828801620008d8565b92505060606200097487828801620008d8565b91505092959194509250565b6000819050919050565b620009958162000980565b82525050565b6000602082019050620009b260008301846200098a565b92915050565b620009c381620008aa565b82525050565b6000602082019050620009e06000830184620009b8565b92915050565b6000819050919050565b600062000a1162000a0b62000a05846200088a565b620009e6565b6200088a565b9050919050565b600062000a2582620009f0565b9050919050565b600062000a398262000a18565b9050919050565b62000a4b8162000a2c565b82525050565b600060208201905062000a68600083018462000a40565b92915050565b600081519050919050565b600081905092915050565b60005b8381101562000aa457808201518184015260208101905062000a87565b8381111562000ab4576000848401525b50505050565b600062000ac78262000a6e565b62000ad3818562000a79565b935062000ae581856020860162000a84565b80840191505092915050565b600062000aff828462000aba565b915081905092915050565b600060039050919050565b600081905092915050565b6000819050919050565b62000b3581620008aa565b82525050565b600062000b49838362000b2a565b60208301905092915050565b6000602082019050919050565b62000b6d8162000b0a565b62000b79818462000b15565b925062000b868262000b20565b8060005b8381101562000bbd57815162000ba1878262000b3b565b965062000bae8362000b55565b92505060018101905062000b8a565b505050505050565b600060608201905062000bdc600083018462000b62565b92915050565b62000bed8162000980565b811462000bf957600080fd5b50565b60008151905062000c0d8162000be2565b92915050565b60006020828403121562000c2c5762000c2b620006cd565b5b600062000c3c8482850162000bfc565b91505092915050565b7f4e487b7100000000000000000000000000000000000000000000000000000000600052601160045260246000fd5b600062000c818262000980565b915062000c8e8362000980565b92508282101562000ca45762000ca362000c45565b5b82820390509291505056fe6080604052336000806101000a81548173ffffffffffffffffffffffffffffffffffffffff021916908373ffffffffffffffffffffffffffffffffffffffff160217905550476001819055506100936040518060400160405280601181526020017f436f6e7472616374204465706c6f79656400000000000000000000000000000081525061009860201b6102bc1760201c565b61021b565b610134816040516024016100ac91906101f9565b6040516020818303038152906040527f41304fac000000000000000000000000000000000000000000000000000000007bffffffffffffffffffffffffffffffffffffffffffffffffffffffff19166020820180517bffffffffffffffffffffffffffffffffffffffffffffffffffffffff838183161783525050505061013760201b60201c565b50565b60008151905060006a636f6e736f6c652e6c6f679050602083016000808483855afa5050505050565b600081519050919050565b600082825260208201905092915050565b60005b8381101561019a57808201518184015260208101905061017f565b838111156101a9576000848401525b50505050565b6000601f19601f8301169050919050565b60006101cb82610160565b6101d5818561016b565b93506101e581856020860161017c565b6101ee816101af565b840191505092915050565b6000602082019050818103600083015261021381846101c0565b905092915050565b6107ba8061022a6000396000f3fe608060405234801561001057600080fd5b50600436106100575760003560e01c806312065fe01461005c578063645a66ea1461007a5780638da5cb5b14610096578063ad7a672f146100b4578063c2052403146100d2575b600080fd5b6100646100dc565b60405161007191906103ad565b60405180910390f35b610094600480360381019061008f919061057c565b6100e4565b005b61009e610181565b6040516100ab91906105b8565b60405180910390f35b6100bc6101a5565b6040516100c991906103ad565b60405180910390f35b6100da6101ab565b005b600047905090565b60005b600381101561017d576002828260038110610105576101046105d3565b5b60200201519080600181540180825580915050600190039060005260206000200160009091909190916101000a81548173ffffffffffffffffffffffffffffffffffffffff021916908373ffffffffffffffffffffffffffffffffffffffff160217905550808061017590610631565b9150506100e7565b5050565b60008054906101000a900473ffffffffffffffffffffffffffffffffffffffff1681565b60015481565b6000471180156101c057506003600280549050145b1561027b5760005b600381101561027557600281815481106101e5576101e46105d3565b5b9060005260206000200160009054906101000a900473ffffffffffffffffffffffffffffffffffffffff1673ffffffffffffffffffffffffffffffffffffffff166108fc6102366001546003610355565b9081150290604051600060405180830381858888f19350505050158015610261573d6000803e3d6000fd5b50808061026d90610631565b9150506101c8565b506102ba565b6102b96040518060400160405280601181526020017f53706f7473206e6f742074616b656e2e2e0000000000000000000000000000008152506102bc565b5b565b610352816040516024016102d09190610702565b6040516020818303038152906040527f41304fac000000000000000000000000000000000000000000000000000000007bffffffffffffffffffffffffffffffffffffffffffffffffffffffff19166020820180517bffffffffffffffffffffffffffffffffffffffffffffffffffffffff838183161783525050505061036b565b50565b600081836103639190610753565b905092915050565b60008151905060006a636f6e736f6c652e6c6f679050602083016000808483855afa5050505050565b6000819050919050565b6103a781610394565b82525050565b60006020820190506103c2600083018461039e565b92915050565b6000604051905090565b600080fd5b600080fd5b6000601f19601f8301169050919050565b7f4e487b7100000000000000000000000000000000000000000000000000000000600052604160045260246000fd5b610425826103dc565b810181811067ffffffffffffffff82111715610444576104436103ed565b5b80604052505050565b60006104576103c8565b9050610463828261041c565b919050565b600067ffffffffffffffff821115610483576104826103ed565b5b602082029050919050565b600080fd5b600073ffffffffffffffffffffffffffffffffffffffff82169050919050565b60006104be82610493565b9050919050565b6104ce816104b3565b81146104d957600080fd5b50565b6000813590506104eb816104c5565b92915050565b60006105046104ff84610468565b61044d565b9050806020840283018581111561051e5761051d61048e565b5b835b81811015610547578061053388826104dc565b845260208401935050602081019050610520565b5050509392505050565b600082601f830112610566576105656103d7565b5b60036105738482856104f1565b91505092915050565b600060608284031215610592576105916103d2565b5b60006105a084828501610551565b91505092915050565b6105b2816104b3565b82525050565b60006020820190506105cd60008301846105a9565b92915050565b7f4e487b7100000000000000000000000000000000000000000000000000000000600052603260045260246000fd5b7f4e487b7100000000000000000000000000000000000000000000000000000000600052601160045260246000fd5b600061063c82610394565b91507fffffffffffffffffffffffffffffffffffffffffffffffffffffffffffffffff82141561066f5761066e610602565b5b600182019050919050565b600081519050919050565b600082825260208201905092915050565b60005b838110156106b4578082015181840152602081019050610699565b838111156106c3576000848401525b50505050565b60006106d48261067a565b6106de8185610685565b93506106ee818560208601610696565b6106f7816103dc565b840191505092915050565b6000602082019050818103600083015261071c81846106c9565b905092915050565b7f4e487b7100000000000000000000000000000000000000000000000000000000600052601260045260246000fd5b600061075e82610394565b915061076983610394565b92508261077957610778610724565b5b82820490509291505056fea26469706673582212203ab74471482eb6454c78585e47b6a7e0fc5b99582a9de85869289edc35fe710764736f6c63430008090033a2646970667358221220f37c3213c31ffa59258c068af2120c3112d056fafb4aa5a86207c8c589be9b1764736f6c63430008090033",
  "linkReferences": {},
  "deployedLinkReferences": {}
}