{
  "_format": "hh-sol-artifact-1",
  "contractName": "SubBank",
  "sourceName": "contracts/BirdBank.sol",
  "abi": [
    {
      "inputs": [],
      "stateMutability": "payable",
      "type": "constructor"
    },
    {
      "inputs": [
        {
          "internalType": "address payable[3]",
          "name": "_addresses",
          "type": "address[3]"
        }
      ],
      "name": "addTop3",
      "outputs": [],
      "stateMutability": "nonpayable",
      "type": "function"
    },
    {
      "inputs": [],
      "name": "getBalance",
      "outputs": [
        {
          "internalType": "uint256",
          "name": "",
          "type": "uint256"
        }
      ],
      "stateMutability": "view",
      "type": "function"
    },
    {
      "inputs": [],
      "name": "owner",
      "outputs": [
        {
          "internalType": "address payable",
          "name": "",
          "type": "address"
        }
      ],
      "stateMutability": "view",
      "type": "function"
    },
    {
      "inputs": [],
      "name": "payOut",
      "outputs": [],
      "stateMutability": "nonpayable",
      "type": "function"
    },
    {
      "inputs": [],
      "name": "totalBalance",
      "outputs": [
        {
          "internalType": "uint256",
          "name": "",
          "type": "uint256"
        }
      ],
      "stateMutability": "view",
      "type": "function"
    }
  ],
  "bytecode": "0x6080604052336000806101000a81548173ffffffffffffffffffffffffffffffffffffffff021916908373ffffffffffffffffffffffffffffffffffffffff160217905550476001819055506100936040518060400160405280601181526020017f436f6e7472616374204465706c6f79656400000000000000000000000000000081525061009860201b6102bc1760201c565b61021b565b610134816040516024016100ac91906101f9565b6040516020818303038152906040527f41304fac000000000000000000000000000000000000000000000000000000007bffffffffffffffffffffffffffffffffffffffffffffffffffffffff19166020820180517bffffffffffffffffffffffffffffffffffffffffffffffffffffffff838183161783525050505061013760201b60201c565b50565b60008151905060006a636f6e736f6c652e6c6f679050602083016000808483855afa5050505050565b600081519050919050565b600082825260208201905092915050565b60005b8381101561019a57808201518184015260208101905061017f565b838111156101a9576000848401525b50505050565b6000601f19601f8301169050919050565b60006101cb82610160565b6101d5818561016b565b93506101e581856020860161017c565b6101ee816101af565b840191505092915050565b6000602082019050818103600083015261021381846101c0565b905092915050565b6107ba8061022a6000396000f3fe608060405234801561001057600080fd5b50600436106100575760003560e01c806312065fe01461005c578063645a66ea1461007a5780638da5cb5b14610096578063ad7a672f146100b4578063c2052403146100d2575b600080fd5b6100646100dc565b60405161007191906103ad565b60405180910390f35b610094600480360381019061008f919061057c565b6100e4565b005b61009e610181565b6040516100ab91906105b8565b60405180910390f35b6100bc6101a5565b6040516100c991906103ad565b60405180910390f35b6100da6101ab565b005b600047905090565b60005b600381101561017d576002828260038110610105576101046105d3565b5b60200201519080600181540180825580915050600190039060005260206000200160009091909190916101000a81548173ffffffffffffffffffffffffffffffffffffffff021916908373ffffffffffffffffffffffffffffffffffffffff160217905550808061017590610631565b9150506100e7565b5050565b60008054906101000a900473ffffffffffffffffffffffffffffffffffffffff1681565b60015481565b6000471180156101c057506003600280549050145b1561027b5760005b600381101561027557600281815481106101e5576101e46105d3565b5b9060005260206000200160009054906101000a900473ffffffffffffffffffffffffffffffffffffffff1673ffffffffffffffffffffffffffffffffffffffff166108fc6102366001546003610355565b9081150290604051600060405180830381858888f19350505050158015610261573d6000803e3d6000fd5b50808061026d90610631565b9150506101c8565b506102ba565b6102b96040518060400160405280601181526020017f53706f7473206e6f742074616b656e2e2e0000000000000000000000000000008152506102bc565b5b565b610352816040516024016102d09190610702565b6040516020818303038152906040527f41304fac000000000000000000000000000000000000000000000000000000007bffffffffffffffffffffffffffffffffffffffffffffffffffffffff19166020820180517bffffffffffffffffffffffffffffffffffffffffffffffffffffffff838183161783525050505061036b565b50565b600081836103639190610753565b905092915050565b60008151905060006a636f6e736f6c652e6c6f679050602083016000808483855afa5050505050565b6000819050919050565b6103a781610394565b82525050565b60006020820190506103c2600083018461039e565b92915050565b6000604051905090565b600080fd5b600080fd5b6000601f19601f8301169050919050565b7f4e487b7100000000000000000000000000000000000000000000000000000000600052604160045260246000fd5b610425826103dc565b810181811067ffffffffffffffff82111715610444576104436103ed565b5b80604052505050565b60006104576103c8565b9050610463828261041c565b919050565b600067ffffffffffffffff821115610483576104826103ed565b5b602082029050919050565b600080fd5b600073ffffffffffffffffffffffffffffffffffffffff82169050919050565b60006104be82610493565b9050919050565b6104ce816104b3565b81146104d957600080fd5b50565b6000813590506104eb816104c5565b92915050565b60006105046104ff84610468565b61044d565b9050806020840283018581111561051e5761051d61048e565b5b835b81811015610547578061053388826104dc565b845260208401935050602081019050610520565b5050509392505050565b600082601f830112610566576105656103d7565b5b60036105738482856104f1565b91505092915050565b600060608284031215610592576105916103d2565b5b60006105a084828501610551565b91505092915050565b6105b2816104b3565b82525050565b60006020820190506105cd60008301846105a9565b92915050565b7f4e487b7100000000000000000000000000000000000000000000000000000000600052603260045260246000fd5b7f4e487b7100000000000000000000000000000000000000000000000000000000600052601160045260246000fd5b600061063c82610394565b91507fffffffffffffffffffffffffffffffffffffffffffffffffffffffffffffffff82141561066f5761066e610602565b5b600182019050919050565b600081519050919050565b600082825260208201905092915050565b60005b838110156106b4578082015181840152602081019050610699565b838111156106c3576000848401525b50505050565b60006106d48261067a565b6106de8185610685565b93506106ee818560208601610696565b6106f7816103dc565b840191505092915050565b6000602082019050818103600083015261071c81846106c9565b905092915050565b7f4e487b7100000000000000000000000000000000000000000000000000000000600052601260045260246000fd5b600061075e82610394565b915061076983610394565b92508261077957610778610724565b5b82820490509291505056fea26469706673582212203ab74471482eb6454c78585e47b6a7e0fc5b99582a9de85869289edc35fe710764736f6c63430008090033",
  "linkReferences": {},
  "deployedLinkReferences": {}
}